{"contracts/SobekEscrow.sol":{"SobekEscrow":{"abi":[{"inputs":[{"internalType":"address","name":"_arbiter","type":"address"},{"internalType":"address payable","name":"_platformWallet","type":"address"},{"internalType":"uint256","name":"_platformFeeBps","type":"uint256"}],"stateMutability":"payable","type":"constructor"},{"inputs":[],"name":"AccessControlBadConfirmation","type":"error"},{"inputs":[{"internalType":"address","name":"account","type":"address"},{"internalType":"bytes32","name":"neededRole","type":"bytes32"}],"name":"AccessControlUnauthorizedAccount","type":"error"},{"inputs":[{"internalType":"address","name":"receiverAddress","type":"address"},{"internalType":"address","name":"winnerAddress","type":"address"}],"name":"AddressMismatch","type":"error"},{"inputs":[],"name":"AlreadyReleased","type":"error"},{"inputs":[],"name":"EtherTransferFail","type":"error"},{"inputs":[{"internalType":"address","name":"token","type":"address"}],"name":"SafeERC20FailedOperation","type":"error"},{"inputs":[],"name":"ValueMismatch","type":"error"},{"anonymous":false,"inputs":[{"indexed":true,"internalType":"address","name":"depositor","type":"address"},{"indexed":true,"internalType":"address","name":"receiver","type":"address"},{"indexed":false,"internalType":"contract IERC20","name":"token","type":"address"},{"indexed":false,"internalType":"uint256","name":"amount","type":"uint256"},{"indexed":true,"internalType":"uint256","name":"registration","type":"uint256"},{"indexed":false,"internalType":"string","name":"details","type":"string"}],"name":"Deposit","type":"event"},{"anonymous":false,"inputs":[{"indexed":true,"internalType":"address","name":"platform","type":"address"},{"indexed":false,"internalType":"uint256","name":"amount","type":"uint256"},{"indexed":true,"internalType":"uint256","name":"registration","type":"uint256"}],"name":"FeeTaken","type":"event"},{"anonymous":false,"inputs":[{"indexed":true,"internalType":"uint256","name":"registration","type":"uint256"}],"name":"Release","type":"event"},{"anonymous":false,"inputs":[{"indexed":true,"internalType":"uint256","name":"registration","type":"uint256"}],"name":"ReleaseToReceiver","type":"event"},{"anonymous":false,"inputs":[{"indexed":true,"internalType":"bytes32","name":"role","type":"bytes32"},{"indexed":true,"internalType":"bytes32","name":"previousAdminRole","type":"bytes32"},{"indexed":true,"internalType":"bytes32","name":"newAdminRole","type":"bytes32"}],"name":"RoleAdminChanged","type":"event"},{"anonymous":false,"inputs":[{"indexed":true,"internalType":"bytes32","name":"role","type":"bytes32"},{"indexed":true,"internalType":"address","name":"account","type":"address"},{"indexed":true,"internalType":"address","name":"sender","type":"address"}],"name":"RoleGranted","type":"event"},{"anonymous":false,"inputs":[{"indexed":true,"internalType":"bytes32","name":"role","type":"bytes32"},{"indexed":true,"internalType":"address","name":"account","type":"address"},{"indexed":true,"internalType":"address","name":"sender","type":"address"}],"name":"RoleRevoked","type":"event"},{"anonymous":false,"inputs":[{"indexed":true,"internalType":"uint256","name":"winnerRefundRegistration","type":"uint256"}],"name":"WinnerRefund","type":"event"},{"inputs":[],"name":"ARBITER","outputs":[{"internalType":"bytes32","name":"","type":"bytes32"}],"stateMutability":"view","type":"function"},{"inputs":[],"name":"DEFAULT_ADMIN_ROLE","outputs":[{"internalType":"bytes32","name":"","type":"bytes32"}],"stateMutability":"view","type":"function"},{"inputs":[{"internalType":"address","name":"receiver","type":"address"},{"internalType":"contract IERC20","name":"token","type":"address"},{"internalType":"uint256","name":"value","type":"uint256"},{"internalType":"string","name":"details","type":"string"}],"name":"deposit","outputs":[],"stateMutability":"payable","type":"function"},{"inputs":[],"name":"escrowCount","outputs":[{"internalType":"uint256","name":"","type":"uint256"}],"stateMutability":"view","type":"function"},{"inputs":[{"internalType":"uint256","name":"","type":"uint256"}],"name":"escrows","outputs":[{"internalType":"address payable","name":"depositor","type":"address"},{"internalType":"address payable","name":"receiver","type":"address"},{"internalType":"contract IERC20","name":"token","type":"address"},{"internalType":"uint256","name":"value","type":"uint256"}],"stateMutability":"view","type":"function"},{"inputs":[{"internalType":"bytes32","name":"role","type":"bytes32"}],"name":"getRoleAdmin","outputs":[{"internalType":"bytes32","name":"","type":"bytes32"}],"stateMutability":"view","type":"function"},{"inputs":[{"internalType":"bytes32","name":"role","type":"bytes32"},{"internalType":"address","name":"account","type":"address"}],"name":"grantRole","outputs":[],"stateMutability":"nonpayable","type":"function"},{"inputs":[{"internalType":"bytes32","name":"role","type":"bytes32"},{"internalType":"address","name":"account","type":"address"}],"name":"hasRole","outputs":[{"internalType":"bool","name":"","type":"bool"}],"stateMutability":"view","type":"function"},{"inputs":[],"name":"platformFeeBps","outputs":[{"internalType":"uint256","name":"","type":"uint256"}],"stateMutability":"view","type":"function"},{"inputs":[],"name":"platformWallet","outputs":[{"internalType":"address payable","name":"","type":"address"}],"stateMutability":"view","type":"function"},{"inputs":[{"internalType":"uint256[]","name":"registration","type":"uint256[]"},{"internalType":"uint256","name":"winnerRefundRegistration","type":"uint256"}],"name":"release","outputs":[],"stateMutability":"payable","type":"function"},{"inputs":[{"internalType":"uint256","name":"registration","type":"uint256"}],"name":"releaseToReceiver","outputs":[],"stateMutability":"payable","type":"function"},{"inputs":[{"internalType":"bytes32","name":"role","type":"bytes32"},{"internalType":"address","name":"callerConfirmation","type":"address"}],"name":"renounceRole","outputs":[],"stateMutability":"nonpayable","type":"function"},{"inputs":[{"internalType":"bytes32","name":"role","type":"bytes32"},{"internalType":"address","name":"account","type":"address"}],"name":"revokeRole","outputs":[],"stateMutability":"nonpayable","type":"function"},{"inputs":[{"internalType":"bytes4","name":"interfaceId","type":"bytes4"}],"name":"supportsInterface","outputs":[{"internalType":"bool","name":"","type":"bool"}],"stateMutability":"view","type":"function"}],"evm":{"bytecode":{"linkReferences":{},"object":"60c06040526040516115b93803806115b98339810160408190526100229161012f565b61002c5f3361006f565b506100577f3b66fa69d5449cc9c6347ae0fdf5aeced2fda09de11c5ea65ee7ce7215d19b408461006f565b506001600160a01b0390911660805260a0525061016f565b5f828152602081815260408083206001600160a01b038516845290915281205460ff1661010f575f838152602081815260408083206001600160a01b03861684529091529020805460ff191660011790556100c73390565b6001600160a01b0316826001600160a01b0316847f2f8788117e7eff1d82e926ec794901d17c78024a50270940304540a733656f0d60405160405180910390a4506001610112565b505f5b92915050565b6001600160a01b038116811461012c575f5ffd5b50565b5f5f5f60608486031215610141575f5ffd5b835161014c81610118565b602085015190935061015d81610118565b80925050604084015190509250925092565b60805160a05161140d6101ac5f395f81816101e60152610a6b01525f818161038201528181610b6b01528181610c7b0152610ca3015261140d5ff3fe6080604052600436106100e4575f3560e01c8063425838e611610087578063a217fddf11610057578063a217fddf1461032c578063d547741f1461033f578063f9baebcb1461035e578063fa2af9da14610371575f5ffd5b8063425838e614610282578063675ac67a14610295578063904cae5c146102aa57806391d14854146102dd575f5ffd5b806322dcd13e116100c257806322dcd13e146101d5578063248a9ca3146102165780632f2ff15d1461024457806336568abe14610263575f5ffd5b8063012f52ee146100e857806301ffc9a7146101915780631fece7b4146101c0575b5f5ffd5b3480156100f3575f5ffd5b506101466101023660046110f1565b600260208190525f9182526040909120805460018201549282015460039092015473ffffffffffffffffffffffffffffffffffffffff918216938216929091169084565b604051610188949392919073ffffffffffffffffffffffffffffffffffffffff9485168152928416602084015292166040820152606081019190915260800190565b60405180910390f35b34801561019c575f5ffd5b506101b06101ab366004611108565b6103c9565b6040519015158152602001610188565b6101d36101ce36600461116f565b610461565b005b3480156101e0575f5ffd5b506102087f000000000000000000000000000000000000000000000000000000000000000081565b604051908152602001610188565b348015610221575f5ffd5b506102086102303660046110f1565b5f9081526020819052604090206001015490565b34801561024f575f5ffd5b506101d361025e366004611208565b6105d9565b34801561026e575f5ffd5b506101d361027d366004611208565b610603565b6101d3610290366004611236565b610661565b3480156102a0575f5ffd5b5061020860015481565b3480156102b5575f5ffd5b506102087f3b66fa69d5449cc9c6347ae0fdf5aeced2fda09de11c5ea65ee7ce7215d19b4081565b3480156102e8575f5ffd5b506101b06102f7366004611208565b5f9182526020828152604080842073ffffffffffffffffffffffffffffffffffffffff93909316845291905290205460ff1690565b348015610337575f5ffd5b506102085f81565b34801561034a575f5ffd5b506101d3610359366004611208565b6109c0565b6101d361036c3660046110f1565b6109e4565b34801561037c575f5ffd5b506103a47f000000000000000000000000000000000000000000000000000000000000000081565b60405173ffffffffffffffffffffffffffffffffffffffff9091168152602001610188565b5f7fffffffff0000000000000000000000000000000000000000000000000000000082167f7965db0b00000000000000000000000000000000000000000000000000000000148061045b57507f01ffc9a7000000000000000000000000000000000000000000000000000000007fffffffff000000000000000000000000000000000000000000000000000000008316145b92915050565b73ffffffffffffffffffffffffffffffffffffffff84166104ba578234146104b5576040517fdd8e4af700000000000000000000000000000000000000000000000000000000815260040160405180910390fd5b6104dc565b6104dc73ffffffffffffffffffffffffffffffffffffffff8516333086610d43565b600180548101808255604080516080810182523380825273ffffffffffffffffffffffffffffffffffffffff8a811660208085018281528c8416868801908152606087018d81525f8a8152600294859052899020975188549087167fffffffffffffffffffffffff000000000000000000000000000000000000000091821617895592519a880180549b87169b84169b909b17909a555191860180549290941691161790915594516003909201919091559051919283929091907f8064610f62d2504a5ade2966ae56559508b00e478dad67fc4fd7dee556ed87cb906105c9908a908a908a908a906112ab565b60405180910390a4505050505050565b5f828152602081905260409020600101546105f381610dcc565b6105fd8383610dd9565b50505050565b73ffffffffffffffffffffffffffffffffffffffff81163314610652576040517f6697b23200000000000000000000000000000000000000000000000000000000815260040160405180910390fd5b61065c8282610ed2565b505050565b7f3b66fa69d5449cc9c6347ae0fdf5aeced2fda09de11c5ea65ee7ce7215d19b4061068b81610dcc565b5f8281526002602052604081209084905b8181101561089d575f60025f8989858181106106ba576106ba61131b565b602090810292909201358352508101919091526040015f208454600182015491925073ffffffffffffffffffffffffffffffffffffffff91821691161461075957600181015484546040517f1f73225f00000000000000000000000000000000000000000000000000000000815273ffffffffffffffffffffffffffffffffffffffff9283166004820152911660248201526044015b60405180910390fd5b600281015473ffffffffffffffffffffffffffffffffffffffff1661081b57600181015460038201546040515f9273ffffffffffffffffffffffffffffffffffffffff1691908381818185875af1925050503d805f81146107d5576040519150601f19603f3d011682016040523d82523d5f602084013e6107da565b606091505b5050905080610815576040517f75f4268300000000000000000000000000000000000000000000000000000000815260040160405180910390fd5b5061084f565b60018101546003820154600283015461084f9273ffffffffffffffffffffffffffffffffffffffff91821692911690610f8b565b8787838181106108615761086161131b565b905060200201357fcf95d1fe0feb1424b6916a8d99a225f598710466d34c5a755770a1d4d49311a060405160405180910390a25060010161069c565b50600282015473ffffffffffffffffffffffffffffffffffffffff1661095d57815460038301546040515f9273ffffffffffffffffffffffffffffffffffffffff1691908381818185875af1925050503d805f8114610917576040519150601f19603f3d011682016040523d82523d5f602084013e61091c565b606091505b5050905080610957576040517f75f4268300000000000000000000000000000000000000000000000000000000815260040160405180910390fd5b5061098e565b81546003830154600284015461098e9273ffffffffffffffffffffffffffffffffffffffff91821692911690610f8b565b60405184907f29f9aa9de940624100873f2f4c5b903bfc4510513eda3080e9b6f10347e9ab11905f90a2505050505050565b5f828152602081905260409020600101546109da81610dcc565b6105fd8383610ed2565b7f3b66fa69d5449cc9c6347ae0fdf5aeced2fda09de11c5ea65ee7ce7215d19b40610a0e81610dcc565b5f82815260026020526040812060038101549091819003610a5b576040517f63b4904e00000000000000000000000000000000000000000000000000000000815260040160405180910390fd5b5f60038301819055612710610a907f000000000000000000000000000000000000000000000000000000000000000084611375565b610a9a919061138c565b90505f610aa782846113c4565b600285015490915073ffffffffffffffffffffffffffffffffffffffff16610c265760018401546040515f9173ffffffffffffffffffffffffffffffffffffffff169083908381818185875af1925050503d805f8114610b22576040519150601f19603f3d011682016040523d82523d5f602084013e610b27565b606091505b5050905080610b62576040517f75f4268300000000000000000000000000000000000000000000000000000000815260040160405180910390fd5b8215610c20575f7f000000000000000000000000000000000000000000000000000000000000000073ffffffffffffffffffffffffffffffffffffffff16846040515f6040518083038185875af1925050503d805f8114610bde576040519150601f19603f3d011682016040523d82523d5f602084013e610be3565b606091505b5050905080610c1e576040517f75f4268300000000000000000000000000000000000000000000000000000000815260040160405180910390fd5b505b50610ca0565b60018401546002850154610c549173ffffffffffffffffffffffffffffffffffffffff918216911683610f8b565b8115610ca0576002840154610ca09073ffffffffffffffffffffffffffffffffffffffff167f000000000000000000000000000000000000000000000000000000000000000084610f8b565b857f000000000000000000000000000000000000000000000000000000000000000073ffffffffffffffffffffffffffffffffffffffff167fa6b7d7885e75fafb205114d74135904f557437647ebcbb720fad77c6869c183584604051610d0991815260200190565b60405180910390a360405186907f66d39d8a0b16e8965d9ba7a3a7ccfad115a858477000a8f3e92a878d30a02e75905f90a2505050505050565b60405173ffffffffffffffffffffffffffffffffffffffff84811660248301528381166044830152606482018390526105fd9186918216906323b872dd906084015b604051602081830303815290604052915060e01b6020820180517bffffffffffffffffffffffffffffffffffffffffffffffffffffffff8381831617835250505050610fc9565b610dd68133611068565b50565b5f8281526020818152604080832073ffffffffffffffffffffffffffffffffffffffff8516845290915281205460ff16610ecb575f8381526020818152604080832073ffffffffffffffffffffffffffffffffffffffff86168452909152902080547fffffffffffffffffffffffffffffffffffffffffffffffffffffffffffffff00166001179055610e693390565b73ffffffffffffffffffffffffffffffffffffffff168273ffffffffffffffffffffffffffffffffffffffff16847f2f8788117e7eff1d82e926ec794901d17c78024a50270940304540a733656f0d60405160405180910390a450600161045b565b505f61045b565b5f8281526020818152604080832073ffffffffffffffffffffffffffffffffffffffff8516845290915281205460ff1615610ecb575f8381526020818152604080832073ffffffffffffffffffffffffffffffffffffffff8616808552925280832080547fffffffffffffffffffffffffffffffffffffffffffffffffffffffffffffff0016905551339286917ff6391f5c32d9c69d2a47ea670b442974b53935d1edc7fd64eb21e047a839171b9190a450600161045b565b60405173ffffffffffffffffffffffffffffffffffffffff83811660248301526044820183905261065c91859182169063a9059cbb90606401610d85565b5f5f60205f8451602086015f885af180610fe8576040513d5f823e3d81fd5b50505f513d91508115610fff578060011415611019565b73ffffffffffffffffffffffffffffffffffffffff84163b155b156105fd576040517f5274afe700000000000000000000000000000000000000000000000000000000815273ffffffffffffffffffffffffffffffffffffffff85166004820152602401610750565b5f8281526020818152604080832073ffffffffffffffffffffffffffffffffffffffff8516845290915290205460ff166110ed576040517fe2517d3f00000000000000000000000000000000000000000000000000000000815273ffffffffffffffffffffffffffffffffffffffff8216600482015260248101839052604401610750565b5050565b5f60208284031215611101575f5ffd5b5035919050565b5f60208284031215611118575f5ffd5b81357fffffffff0000000000000000000000000000000000000000000000000000000081168114611147575f5ffd5b9392505050565b73ffffffffffffffffffffffffffffffffffffffff81168114610dd6575f5ffd5b5f5f5f5f5f60808688031215611183575f5ffd5b853561118e8161114e565b9450602086013561119e8161114e565b935060408601359250606086013567ffffffffffffffff8111156111c0575f5ffd5b8601601f810188136111d0575f5ffd5b803567ffffffffffffffff8111156111e6575f5ffd5b8860208284010111156111f7575f5ffd5b959894975092955050506020019190565b5f5f60408385031215611219575f5ffd5b82359150602083013561122b8161114e565b809150509250929050565b5f5f5f60408486031215611248575f5ffd5b833567ffffffffffffffff81111561125e575f5ffd5b8401601f8101861361126e575f5ffd5b803567ffffffffffffffff811115611284575f5ffd5b8660208260051b8401011115611298575f5ffd5b6020918201979096509401359392505050565b73ffffffffffffffffffffffffffffffffffffffff8516815283602082015260606040820152816060820152818360808301375f818301608090810191909152601f9092017fffffffffffffffffffffffffffffffffffffffffffffffffffffffffffffffe01601019392505050565b7f4e487b71000000000000000000000000000000000000000000000000000000005f52603260045260245ffd5b7f4e487b71000000000000000000000000000000000000000000000000000000005f52601160045260245ffd5b808202811582820484141761045b5761045b611348565b5f826113bf577f4e487b71000000000000000000000000000000000000000000000000000000005f52601260045260245ffd5b500490565b8181038181111561045b5761045b61134856fea264697066735822122022ab09bd7df135394b506730afb8a4e0a16e613d663e39b431862ed84fac55aa64736f6c63430008220033","opcodes":"PUSH1 0xC0 PUSH1 0x40 MSTORE PUSH1 0x40 MLOAD PUSH2 0x15B9 CODESIZE SUB DUP1 PUSH2 0x15B9 DUP4 CODECOPY DUP2 ADD PUSH1 0x40 DUP2 SWAP1 MSTORE PUSH2 0x22 SWAP2 PUSH2 0x12F JUMP JUMPDEST PUSH2 0x2C PUSH0 CALLER PUSH2 0x6F JUMP JUMPDEST POP PUSH2 0x57 PUSH32 0x3B66FA69D5449CC9C6347AE0FDF5AECED2FDA09DE11C5EA65EE7CE7215D19B40 DUP5 PUSH2 0x6F JUMP JUMPDEST POP PUSH1 0x1 PUSH1 0x1 PUSH1 0xA0 SHL SUB SWAP1 SWAP2 AND PUSH1 0x80 MSTORE PUSH1 0xA0 MSTORE POP PUSH2 0x16F JUMP JUMPDEST PUSH0 DUP3 DUP2 MSTORE PUSH1 0x20 DUP2 DUP2 MSTORE PUSH1 0x40 DUP1 DUP4 KECCAK256 PUSH1 0x1 PUSH1 0x1 PUSH1 0xA0 SHL SUB DUP6 AND DUP5 MSTORE SWAP1 SWAP2 MSTORE DUP2 KECCAK256 SLOAD PUSH1 0xFF AND PUSH2 0x10F JUMPI PUSH0 DUP4 DUP2 MSTORE PUSH1 0x20 DUP2 DUP2 MSTORE PUSH1 0x40 DUP1 DUP4 KECCAK256 PUSH1 0x1 PUSH1 0x1 PUSH1 0xA0 SHL SUB DUP7 AND DUP5 MSTORE SWAP1 SWAP2 MSTORE SWAP1 KECCAK256 DUP1 SLOAD PUSH1 0xFF NOT AND PUSH1 0x1 OR SWAP1 SSTORE PUSH2 0xC7 CALLER SWAP1 JUMP JUMPDEST PUSH1 0x1 PUSH1 0x1 PUSH1 0xA0 SHL SUB AND DUP3 PUSH1 0x1 PUSH1 0x1 PUSH1 0xA0 SHL SUB AND DUP5 PUSH32 0x2F8788117E7EFF1D82E926EC794901D17C78024A50270940304540A733656F0D PUSH1 0x40 MLOAD PUSH1 0x40 MLOAD DUP1 SWAP2 SUB SWAP1 LOG4 POP PUSH1 0x1 PUSH2 0x112 JUMP JUMPDEST POP PUSH0 JUMPDEST SWAP3 SWAP2 POP POP JUMP JUMPDEST PUSH1 0x1 PUSH1 0x1 PUSH1 0xA0 SHL SUB DUP2 AND DUP2 EQ PUSH2 0x12C JUMPI PUSH0 PUSH0 REVERT JUMPDEST POP JUMP JUMPDEST PUSH0 PUSH0 PUSH0 PUSH1 0x60 DUP5 DUP7 SUB SLT ISZERO PUSH2 0x141 JUMPI PUSH0 PUSH0 REVERT JUMPDEST DUP4 MLOAD PUSH2 0x14C DUP2 PUSH2 0x118 JUMP JUMPDEST PUSH1 0x20 DUP6 ADD MLOAD SWAP1 SWAP4 POP PUSH2 0x15D DUP2 PUSH2 0x118 JUMP JUMPDEST DUP1 SWAP3 POP POP PUSH1 0x40 DUP5 ADD MLOAD SWAP1 POP SWAP3 POP SWAP3 POP SWAP3 JUMP JUMPDEST PUSH1 0x80 MLOAD PUSH1 0xA0 MLOAD PUSH2 0x140D PUSH2 0x1AC PUSH0 CODECOPY PUSH0 DUP2 DUP2 PUSH2 0x1E6 ADD MSTORE PUSH2 0xA6B ADD MSTORE PUSH0 DUP2 DUP2 PUSH2 0x382 ADD MSTORE DUP2 DUP2 PUSH2 0xB6B ADD MSTORE DUP2 DUP2 PUSH2 0xC7B ADD MSTORE PUSH2 0xCA3 ADD MSTORE PUSH2 0x140D PUSH0 RETURN INVALID PUSH1 0x80 PUSH1 0x40 MSTORE PUSH1 0x4 CALLDATASIZE LT PUSH2 0xE4 JUMPI PUSH0 CALLDATALOAD PUSH1 0xE0 SHR DUP1 PUSH4 0x425838E6 GT PUSH2 0x87 JUMPI DUP1 PUSH4 0xA217FDDF GT PUSH2 0x57 JUMPI DUP1 PUSH4 0xA217FDDF EQ PUSH2 0x32C JUMPI DUP1 PUSH4 0xD547741F EQ PUSH2 0x33F JUMPI DUP1 PUSH4 0xF9BAEBCB EQ PUSH2 0x35E JUMPI DUP1 PUSH4 0xFA2AF9DA EQ PUSH2 0x371 JUMPI PUSH0 PUSH0 REVERT JUMPDEST DUP1 PUSH4 0x425838E6 EQ PUSH2 0x282 JUMPI DUP1 PUSH4 0x675AC67A EQ PUSH2 0x295 JUMPI DUP1 PUSH4 0x904CAE5C EQ PUSH2 0x2AA JUMPI DUP1 PUSH4 0x91D14854 EQ PUSH2 0x2DD JUMPI PUSH0 PUSH0 REVERT JUMPDEST DUP1 PUSH4 0x22DCD13E GT PUSH2 0xC2 JUMPI DUP1 PUSH4 0x22DCD13E EQ PUSH2 0x1D5 JUMPI DUP1 PUSH4 0x248A9CA3 EQ PUSH2 0x216 JUMPI DUP1 PUSH4 0x2F2FF15D EQ PUSH2 0x244 JUMPI DUP1 PUSH4 0x36568ABE EQ PUSH2 0x263 JUMPI PUSH0 PUSH0 REVERT JUMPDEST DUP1 PUSH4 0x12F52EE EQ PUSH2 0xE8 JUMPI DUP1 PUSH4 0x1FFC9A7 EQ PUSH2 0x191 JUMPI DUP1 PUSH4 0x1FECE7B4 EQ PUSH2 0x1C0 JUMPI JUMPDEST PUSH0 PUSH0 REVERT JUMPDEST CALLVALUE DUP1 ISZERO PUSH2 0xF3 JUMPI PUSH0 PUSH0 REVERT JUMPDEST POP PUSH2 0x146 PUSH2 0x102 CALLDATASIZE PUSH1 0x4 PUSH2 0x10F1 JUMP JUMPDEST PUSH1 0x2 PUSH1 0x20 DUP2 SWAP1 MSTORE PUSH0 SWAP2 DUP3 MSTORE PUSH1 0x40 SWAP1 SWAP2 KECCAK256 DUP1 SLOAD PUSH1 0x1 DUP3 ADD SLOAD SWAP3 DUP3 ADD SLOAD PUSH1 0x3 SWAP1 SWAP3 ADD SLOAD PUSH20 0xFFFFFFFFFFFFFFFFFFFFFFFFFFFFFFFFFFFFFFFF SWAP2 DUP3 AND SWAP4 DUP3 AND SWAP3 SWAP1 SWAP2 AND SWAP1 DUP5 JUMP JUMPDEST PUSH1 0x40 MLOAD PUSH2 0x188 SWAP5 SWAP4 SWAP3 SWAP2 SWAP1 PUSH20 0xFFFFFFFFFFFFFFFFFFFFFFFFFFFFFFFFFFFFFFFF SWAP5 DUP6 AND DUP2 MSTORE SWAP3 DUP5 AND PUSH1 0x20 DUP5 ADD MSTORE SWAP3 AND PUSH1 0x40 DUP3 ADD MSTORE PUSH1 0x60 DUP2 ADD SWAP2 SWAP1 SWAP2 MSTORE PUSH1 0x80 ADD SWAP1 JUMP JUMPDEST PUSH1 0x40 MLOAD DUP1 SWAP2 SUB SWAP1 RETURN JUMPDEST CALLVALUE DUP1 ISZERO PUSH2 0x19C JUMPI PUSH0 PUSH0 REVERT JUMPDEST POP PUSH2 0x1B0 PUSH2 0x1AB CALLDATASIZE PUSH1 0x4 PUSH2 0x1108 JUMP JUMPDEST PUSH2 0x3C9 JUMP JUMPDEST PUSH1 0x40 MLOAD SWAP1 ISZERO ISZERO DUP2 MSTORE PUSH1 0x20 ADD PUSH2 0x188 JUMP JUMPDEST PUSH2 0x1D3 PUSH2 0x1CE CALLDATASIZE PUSH1 0x4 PUSH2 0x116F JUMP JUMPDEST PUSH2 0x461 JUMP JUMPDEST STOP JUMPDEST CALLVALUE DUP1 ISZERO PUSH2 0x1E0 JUMPI PUSH0 PUSH0 REVERT JUMPDEST POP PUSH2 0x208 PUSH32 0x0 DUP2 JUMP JUMPDEST PUSH1 0x40 MLOAD SWAP1 DUP2 MSTORE PUSH1 0x20 ADD PUSH2 0x188 JUMP JUMPDEST CALLVALUE DUP1 ISZERO PUSH2 0x221 JUMPI PUSH0 PUSH0 REVERT JUMPDEST POP PUSH2 0x208 PUSH2 0x230 CALLDATASIZE PUSH1 0x4 PUSH2 0x10F1 JUMP JUMPDEST PUSH0 SWAP1 DUP2 MSTORE PUSH1 0x20 DUP2 SWAP1 MSTORE PUSH1 0x40 SWAP1 KECCAK256 PUSH1 0x1 ADD SLOAD SWAP1 JUMP JUMPDEST CALLVALUE DUP1 ISZERO PUSH2 0x24F JUMPI PUSH0 PUSH0 REVERT JUMPDEST POP PUSH2 0x1D3 PUSH2 0x25E CALLDATASIZE PUSH1 0x4 PUSH2 0x1208 JUMP JUMPDEST PUSH2 0x5D9 JUMP JUMPDEST CALLVALUE DUP1 ISZERO PUSH2 0x26E JUMPI PUSH0 PUSH0 REVERT JUMPDEST POP PUSH2 0x1D3 PUSH2 0x27D CALLDATASIZE PUSH1 0x4 PUSH2 0x1208 JUMP JUMPDEST PUSH2 0x603 JUMP JUMPDEST PUSH2 0x1D3 PUSH2 0x290 CALLDATASIZE PUSH1 0x4 PUSH2 0x1236 JUMP JUMPDEST PUSH2 0x661 JUMP JUMPDEST CALLVALUE DUP1 ISZERO PUSH2 0x2A0 JUMPI PUSH0 PUSH0 REVERT JUMPDEST POP PUSH2 0x208 PUSH1 0x1 SLOAD DUP2 JUMP JUMPDEST CALLVALUE DUP1 ISZERO PUSH2 0x2B5 JUMPI PUSH0 PUSH0 REVERT JUMPDEST POP PUSH2 0x208 PUSH32 0x3B66FA69D5449CC9C6347AE0FDF5AECED2FDA09DE11C5EA65EE7CE7215D19B40 DUP2 JUMP JUMPDEST CALLVALUE DUP1 ISZERO PUSH2 0x2E8 JUMPI PUSH0 PUSH0 REVERT JUMPDEST POP PUSH2 0x1B0 PUSH2 0x2F7 CALLDATASIZE PUSH1 0x4 PUSH2 0x1208 JUMP JUMPDEST PUSH0 SWAP2 DUP3 MSTORE PUSH1 0x20 DUP3 DUP2 MSTORE PUSH1 0x40 DUP1 DUP5 KECCAK256 PUSH20 0xFFFFFFFFFFFFFFFFFFFFFFFFFFFFFFFFFFFFFFFF SWAP4 SWAP1 SWAP4 AND DUP5 MSTORE SWAP2 SWAP1 MSTORE SWAP1 KECCAK256 SLOAD PUSH1 0xFF AND SWAP1 JUMP JUMPDEST CALLVALUE DUP1 ISZERO PUSH2 0x337 JUMPI PUSH0 PUSH0 REVERT JUMPDEST POP PUSH2 0x208 PUSH0 DUP2 JUMP JUMPDEST CALLVALUE DUP1 ISZERO PUSH2 0x34A JUMPI PUSH0 PUSH0 REVERT JUMPDEST POP PUSH2 0x1D3 PUSH2 0x359 CALLDATASIZE PUSH1 0x4 PUSH2 0x1208 JUMP JUMPDEST PUSH2 0x9C0 JUMP JUMPDEST PUSH2 0x1D3 PUSH2 0x36C CALLDATASIZE PUSH1 0x4 PUSH2 0x10F1 JUMP JUMPDEST PUSH2 0x9E4 JUMP JUMPDEST CALLVALUE DUP1 ISZERO PUSH2 0x37C JUMPI PUSH0 PUSH0 REVERT JUMPDEST POP PUSH2 0x3A4 PUSH32 0x0 DUP2 JUMP JUMPDEST PUSH1 0x40 MLOAD PUSH20 0xFFFFFFFFFFFFFFFFFFFFFFFFFFFFFFFFFFFFFFFF SWAP1 SWAP2 AND DUP2 MSTORE PUSH1 0x20 ADD PUSH2 0x188 JUMP JUMPDEST PUSH0 PUSH32 0xFFFFFFFF00000000000000000000000000000000000000000000000000000000 DUP3 AND PUSH32 0x7965DB0B00000000000000000000000000000000000000000000000000000000 EQ DUP1 PUSH2 0x45B JUMPI POP PUSH32 0x1FFC9A700000000000000000000000000000000000000000000000000000000 PUSH32 0xFFFFFFFF00000000000000000000000000000000000000000000000000000000 DUP4 AND EQ JUMPDEST SWAP3 SWAP2 POP POP JUMP JUMPDEST PUSH20 0xFFFFFFFFFFFFFFFFFFFFFFFFFFFFFFFFFFFFFFFF DUP5 AND PUSH2 0x4BA JUMPI DUP3 CALLVALUE EQ PUSH2 0x4B5 JUMPI PUSH1 0x40 MLOAD PUSH32 0xDD8E4AF700000000000000000000000000000000000000000000000000000000 DUP2 MSTORE PUSH1 0x4 ADD PUSH1 0x40 MLOAD DUP1 SWAP2 SUB SWAP1 REVERT JUMPDEST PUSH2 0x4DC JUMP JUMPDEST PUSH2 0x4DC PUSH20 0xFFFFFFFFFFFFFFFFFFFFFFFFFFFFFFFFFFFFFFFF DUP6 AND CALLER ADDRESS DUP7 PUSH2 0xD43 JUMP JUMPDEST PUSH1 0x1 DUP1 SLOAD DUP2 ADD DUP1 DUP3 SSTORE PUSH1 0x40 DUP1 MLOAD PUSH1 0x80 DUP2 ADD DUP3 MSTORE CALLER DUP1 DUP3 MSTORE PUSH20 0xFFFFFFFFFFFFFFFFFFFFFFFFFFFFFFFFFFFFFFFF DUP11 DUP2 AND PUSH1 0x20 DUP1 DUP6 ADD DUP3 DUP2 MSTORE DUP13 DUP5 AND DUP7 DUP9 ADD SWAP1 DUP2 MSTORE PUSH1 0x60 DUP8 ADD DUP14 DUP2 MSTORE PUSH0 DUP11 DUP2 MSTORE PUSH1 0x2 SWAP5 DUP6 SWAP1 MSTORE DUP10 SWAP1 KECCAK256 SWAP8 MLOAD DUP9 SLOAD SWAP1 DUP8 AND PUSH32 0xFFFFFFFFFFFFFFFFFFFFFFFF0000000000000000000000000000000000000000 SWAP2 DUP3 AND OR DUP10 SSTORE SWAP3 MLOAD SWAP11 DUP9 ADD DUP1 SLOAD SWAP12 DUP8 AND SWAP12 DUP5 AND SWAP12 SWAP1 SWAP12 OR SWAP1 SWAP11 SSTORE MLOAD SWAP2 DUP7 ADD DUP1 SLOAD SWAP3 SWAP1 SWAP5 AND SWAP2 AND OR SWAP1 SWAP2 SSTORE SWAP5 MLOAD PUSH1 0x3 SWAP1 SWAP3 ADD SWAP2 SWAP1 SWAP2 SSTORE SWAP1 MLOAD SWAP2 SWAP3 DUP4 SWAP3 SWAP1 SWAP2 SWAP1 PUSH32 0x8064610F62D2504A5ADE2966AE56559508B00E478DAD67FC4FD7DEE556ED87CB SWAP1 PUSH2 0x5C9 SWAP1 DUP11 SWAP1 DUP11 SWAP1 DUP11 SWAP1 DUP11 SWAP1 PUSH2 0x12AB JUMP JUMPDEST PUSH1 0x40 MLOAD DUP1 SWAP2 SUB SWAP1 LOG4 POP POP POP POP POP POP JUMP JUMPDEST PUSH0 DUP3 DUP2 MSTORE PUSH1 0x20 DUP2 SWAP1 MSTORE PUSH1 0x40 SWAP1 KECCAK256 PUSH1 0x1 ADD SLOAD PUSH2 0x5F3 DUP2 PUSH2 0xDCC JUMP JUMPDEST PUSH2 0x5FD DUP4 DUP4 PUSH2 0xDD9 JUMP JUMPDEST POP POP POP POP JUMP JUMPDEST PUSH20 0xFFFFFFFFFFFFFFFFFFFFFFFFFFFFFFFFFFFFFFFF DUP2 AND CALLER EQ PUSH2 0x652 JUMPI PUSH1 0x40 MLOAD PUSH32 0x6697B23200000000000000000000000000000000000000000000000000000000 DUP2 MSTORE PUSH1 0x4 ADD PUSH1 0x40 MLOAD DUP1 SWAP2 SUB SWAP1 REVERT JUMPDEST PUSH2 0x65C DUP3 DUP3 PUSH2 0xED2 JUMP JUMPDEST POP POP POP JUMP JUMPDEST PUSH32 0x3B66FA69D5449CC9C6347AE0FDF5AECED2FDA09DE11C5EA65EE7CE7215D19B40 PUSH2 0x68B DUP2 PUSH2 0xDCC JUMP JUMPDEST PUSH0 DUP3 DUP2 MSTORE PUSH1 0x2 PUSH1 0x20 MSTORE PUSH1 0x40 DUP2 KECCAK256 SWAP1 DUP5 SWAP1 JUMPDEST DUP2 DUP2 LT ISZERO PUSH2 0x89D JUMPI PUSH0 PUSH1 0x2 PUSH0 DUP10 DUP10 DUP6 DUP2 DUP2 LT PUSH2 0x6BA JUMPI PUSH2 0x6BA PUSH2 0x131B JUMP JUMPDEST PUSH1 0x20 SWAP1 DUP2 MUL SWAP3 SWAP1 SWAP3 ADD CALLDATALOAD DUP4 MSTORE POP DUP2 ADD SWAP2 SWAP1 SWAP2 MSTORE PUSH1 0x40 ADD PUSH0 KECCAK256 DUP5 SLOAD PUSH1 0x1 DUP3 ADD SLOAD SWAP2 SWAP3 POP PUSH20 0xFFFFFFFFFFFFFFFFFFFFFFFFFFFFFFFFFFFFFFFF SWAP2 DUP3 AND SWAP2 AND EQ PUSH2 0x759 JUMPI PUSH1 0x1 DUP2 ADD SLOAD DUP5 SLOAD PUSH1 0x40 MLOAD PUSH32 0x1F73225F00000000000000000000000000000000000000000000000000000000 DUP2 MSTORE PUSH20 0xFFFFFFFFFFFFFFFFFFFFFFFFFFFFFFFFFFFFFFFF SWAP3 DUP4 AND PUSH1 0x4 DUP3 ADD MSTORE SWAP2 AND PUSH1 0x24 DUP3 ADD MSTORE PUSH1 0x44 ADD JUMPDEST PUSH1 0x40 MLOAD DUP1 SWAP2 SUB SWAP1 REVERT JUMPDEST PUSH1 0x2 DUP2 ADD SLOAD PUSH20 0xFFFFFFFFFFFFFFFFFFFFFFFFFFFFFFFFFFFFFFFF AND PUSH2 0x81B JUMPI PUSH1 0x1 DUP2 ADD SLOAD PUSH1 0x3 DUP3 ADD SLOAD PUSH1 0x40 MLOAD PUSH0 SWAP3 PUSH20 0xFFFFFFFFFFFFFFFFFFFFFFFFFFFFFFFFFFFFFFFF AND SWAP2 SWAP1 DUP4 DUP2 DUP2 DUP2 DUP6 DUP8 GAS CALL SWAP3 POP POP POP RETURNDATASIZE DUP1 PUSH0 DUP2 EQ PUSH2 0x7D5 JUMPI PUSH1 0x40 MLOAD SWAP2 POP PUSH1 0x1F NOT PUSH1 0x3F RETURNDATASIZE ADD AND DUP3 ADD PUSH1 0x40 MSTORE RETURNDATASIZE DUP3 MSTORE RETURNDATASIZE PUSH0 PUSH1 0x20 DUP5 ADD RETURNDATACOPY PUSH2 0x7DA JUMP JUMPDEST PUSH1 0x60 SWAP2 POP JUMPDEST POP POP SWAP1 POP DUP1 PUSH2 0x815 JUMPI PUSH1 0x40 MLOAD PUSH32 0x75F4268300000000000000000000000000000000000000000000000000000000 DUP2 MSTORE PUSH1 0x4 ADD PUSH1 0x40 MLOAD DUP1 SWAP2 SUB SWAP1 REVERT JUMPDEST POP PUSH2 0x84F JUMP JUMPDEST PUSH1 0x1 DUP2 ADD SLOAD PUSH1 0x3 DUP3 ADD SLOAD PUSH1 0x2 DUP4 ADD SLOAD PUSH2 0x84F SWAP3 PUSH20 0xFFFFFFFFFFFFFFFFFFFFFFFFFFFFFFFFFFFFFFFF SWAP2 DUP3 AND SWAP3 SWAP2 AND SWAP1 PUSH2 0xF8B JUMP JUMPDEST DUP8 DUP8 DUP4 DUP2 DUP2 LT PUSH2 0x861 JUMPI PUSH2 0x861 PUSH2 0x131B JUMP JUMPDEST SWAP1 POP PUSH1 0x20 MUL ADD CALLDATALOAD PUSH32 0xCF95D1FE0FEB1424B6916A8D99A225F598710466D34C5A755770A1D4D49311A0 PUSH1 0x40 MLOAD PUSH1 0x40 MLOAD DUP1 SWAP2 SUB SWAP1 LOG2 POP PUSH1 0x1 ADD PUSH2 0x69C JUMP JUMPDEST POP PUSH1 0x2 DUP3 ADD SLOAD PUSH20 0xFFFFFFFFFFFFFFFFFFFFFFFFFFFFFFFFFFFFFFFF AND PUSH2 0x95D JUMPI DUP2 SLOAD PUSH1 0x3 DUP4 ADD SLOAD PUSH1 0x40 MLOAD PUSH0 SWAP3 PUSH20 0xFFFFFFFFFFFFFFFFFFFFFFFFFFFFFFFFFFFFFFFF AND SWAP2 SWAP1 DUP4 DUP2 DUP2 DUP2 DUP6 DUP8 GAS CALL SWAP3 POP POP POP RETURNDATASIZE DUP1 PUSH0 DUP2 EQ PUSH2 0x917 JUMPI PUSH1 0x40 MLOAD SWAP2 POP PUSH1 0x1F NOT PUSH1 0x3F RETURNDATASIZE ADD AND DUP3 ADD PUSH1 0x40 MSTORE RETURNDATASIZE DUP3 MSTORE RETURNDATASIZE PUSH0 PUSH1 0x20 DUP5 ADD RETURNDATACOPY PUSH2 0x91C JUMP JUMPDEST PUSH1 0x60 SWAP2 POP JUMPDEST POP POP SWAP1 POP DUP1 PUSH2 0x957 JUMPI PUSH1 0x40 MLOAD PUSH32 0x75F4268300000000000000000000000000000000000000000000000000000000 DUP2 MSTORE PUSH1 0x4 ADD PUSH1 0x40 MLOAD DUP1 SWAP2 SUB SWAP1 REVERT JUMPDEST POP PUSH2 0x98E JUMP JUMPDEST DUP2 SLOAD PUSH1 0x3 DUP4 ADD SLOAD PUSH1 0x2 DUP5 ADD SLOAD PUSH2 0x98E SWAP3 PUSH20 0xFFFFFFFFFFFFFFFFFFFFFFFFFFFFFFFFFFFFFFFF SWAP2 DUP3 AND SWAP3 SWAP2 AND SWAP1 PUSH2 0xF8B JUMP JUMPDEST PUSH1 0x40 MLOAD DUP5 SWAP1 PUSH32 0x29F9AA9DE940624100873F2F4C5B903BFC4510513EDA3080E9B6F10347E9AB11 SWAP1 PUSH0 SWAP1 LOG2 POP POP POP POP POP POP JUMP JUMPDEST PUSH0 DUP3 DUP2 MSTORE PUSH1 0x20 DUP2 SWAP1 MSTORE PUSH1 0x40 SWAP1 KECCAK256 PUSH1 0x1 ADD SLOAD PUSH2 0x9DA DUP2 PUSH2 0xDCC JUMP JUMPDEST PUSH2 0x5FD DUP4 DUP4 PUSH2 0xED2 JUMP JUMPDEST PUSH32 0x3B66FA69D5449CC9C6347AE0FDF5AECED2FDA09DE11C5EA65EE7CE7215D19B40 PUSH2 0xA0E DUP2 PUSH2 0xDCC JUMP JUMPDEST PUSH0 DUP3 DUP2 MSTORE PUSH1 0x2 PUSH1 0x20 MSTORE PUSH1 0x40 DUP2 KECCAK256 PUSH1 0x3 DUP2 ADD SLOAD SWAP1 SWAP2 DUP2 SWAP1 SUB PUSH2 0xA5B JUMPI PUSH1 0x40 MLOAD PUSH32 0x63B4904E00000000000000000000000000000000000000000000000000000000 DUP2 MSTORE PUSH1 0x4 ADD PUSH1 0x40 MLOAD DUP1 SWAP2 SUB SWAP1 REVERT JUMPDEST PUSH0 PUSH1 0x3 DUP4 ADD DUP2 SWAP1 SSTORE PUSH2 0x2710 PUSH2 0xA90 PUSH32 0x0 DUP5 PUSH2 0x1375 JUMP JUMPDEST PUSH2 0xA9A SWAP2 SWAP1 PUSH2 0x138C JUMP JUMPDEST SWAP1 POP PUSH0 PUSH2 0xAA7 DUP3 DUP5 PUSH2 0x13C4 JUMP JUMPDEST PUSH1 0x2 DUP6 ADD SLOAD SWAP1 SWAP2 POP PUSH20 0xFFFFFFFFFFFFFFFFFFFFFFFFFFFFFFFFFFFFFFFF AND PUSH2 0xC26 JUMPI PUSH1 0x1 DUP5 ADD SLOAD PUSH1 0x40 MLOAD PUSH0 SWAP2 PUSH20 0xFFFFFFFFFFFFFFFFFFFFFFFFFFFFFFFFFFFFFFFF AND SWAP1 DUP4 SWAP1 DUP4 DUP2 DUP2 DUP2 DUP6 DUP8 GAS CALL SWAP3 POP POP POP RETURNDATASIZE DUP1 PUSH0 DUP2 EQ PUSH2 0xB22 JUMPI PUSH1 0x40 MLOAD SWAP2 POP PUSH1 0x1F NOT PUSH1 0x3F RETURNDATASIZE ADD AND DUP3 ADD PUSH1 0x40 MSTORE RETURNDATASIZE DUP3 MSTORE RETURNDATASIZE PUSH0 PUSH1 0x20 DUP5 ADD RETURNDATACOPY PUSH2 0xB27 JUMP JUMPDEST PUSH1 0x60 SWAP2 POP JUMPDEST POP POP SWAP1 POP DUP1 PUSH2 0xB62 JUMPI PUSH1 0x40 MLOAD PUSH32 0x75F4268300000000000000000000000000000000000000000000000000000000 DUP2 MSTORE PUSH1 0x4 ADD PUSH1 0x40 MLOAD DUP1 SWAP2 SUB SWAP1 REVERT JUMPDEST DUP3 ISZERO PUSH2 0xC20 JUMPI PUSH0 PUSH32 0x0 PUSH20 0xFFFFFFFFFFFFFFFFFFFFFFFFFFFFFFFFFFFFFFFF AND DUP5 PUSH1 0x40 MLOAD PUSH0 PUSH1 0x40 MLOAD DUP1 DUP4 SUB DUP2 DUP6 DUP8 GAS CALL SWAP3 POP POP POP RETURNDATASIZE DUP1 PUSH0 DUP2 EQ PUSH2 0xBDE JUMPI PUSH1 0x40 MLOAD SWAP2 POP PUSH1 0x1F NOT PUSH1 0x3F RETURNDATASIZE ADD AND DUP3 ADD PUSH1 0x40 MSTORE RETURNDATASIZE DUP3 MSTORE RETURNDATASIZE PUSH0 PUSH1 0x20 DUP5 ADD RETURNDATACOPY PUSH2 0xBE3 JUMP JUMPDEST PUSH1 0x60 SWAP2 POP JUMPDEST POP POP SWAP1 POP DUP1 PUSH2 0xC1E JUMPI PUSH1 0x40 MLOAD PUSH32 0x75F4268300000000000000000000000000000000000000000000000000000000 DUP2 MSTORE PUSH1 0x4 ADD PUSH1 0x40 MLOAD DUP1 SWAP2 SUB SWAP1 REVERT JUMPDEST POP JUMPDEST POP PUSH2 0xCA0 JUMP JUMPDEST PUSH1 0x1 DUP5 ADD SLOAD PUSH1 0x2 DUP6 ADD SLOAD PUSH2 0xC54 SWAP2 PUSH20 0xFFFFFFFFFFFFFFFFFFFFFFFFFFFFFFFFFFFFFFFF SWAP2 DUP3 AND SWAP2 AND DUP4 PUSH2 0xF8B JUMP JUMPDEST DUP2 ISZERO PUSH2 0xCA0 JUMPI PUSH1 0x2 DUP5 ADD SLOAD PUSH2 0xCA0 SWAP1 PUSH20 0xFFFFFFFFFFFFFFFFFFFFFFFFFFFFFFFFFFFFFFFF AND PUSH32 0x0 DUP5 PUSH2 0xF8B JUMP JUMPDEST DUP6 PUSH32 0x0 PUSH20 0xFFFFFFFFFFFFFFFFFFFFFFFFFFFFFFFFFFFFFFFF AND PUSH32 0xA6B7D7885E75FAFB205114D74135904F557437647EBCBB720FAD77C6869C1835 DUP5 PUSH1 0x40 MLOAD PUSH2 0xD09 SWAP2 DUP2 MSTORE PUSH1 0x20 ADD SWAP1 JUMP JUMPDEST PUSH1 0x40 MLOAD DUP1 SWAP2 SUB SWAP1 LOG3 PUSH1 0x40 MLOAD DUP7 SWAP1 PUSH32 0x66D39D8A0B16E8965D9BA7A3A7CCFAD115A858477000A8F3E92A878D30A02E75 SWAP1 PUSH0 SWAP1 LOG2 POP POP POP POP POP POP JUMP JUMPDEST PUSH1 0x40 MLOAD PUSH20 0xFFFFFFFFFFFFFFFFFFFFFFFFFFFFFFFFFFFFFFFF DUP5 DUP2 AND PUSH1 0x24 DUP4 ADD MSTORE DUP4 DUP2 AND PUSH1 0x44 DUP4 ADD MSTORE PUSH1 0x64 DUP3 ADD DUP4 SWAP1 MSTORE PUSH2 0x5FD SWAP2 DUP7 SWAP2 DUP3 AND SWAP1 PUSH4 0x23B872DD SWAP1 PUSH1 0x84 ADD JUMPDEST PUSH1 0x40 MLOAD PUSH1 0x20 DUP2 DUP4 SUB SUB DUP2 MSTORE SWAP1 PUSH1 0x40 MSTORE SWAP2 POP PUSH1 0xE0 SHL PUSH1 0x20 DUP3 ADD DUP1 MLOAD PUSH28 0xFFFFFFFFFFFFFFFFFFFFFFFFFFFFFFFFFFFFFFFFFFFFFFFFFFFFFFFF DUP4 DUP2 DUP4 AND OR DUP4 MSTORE POP POP POP POP PUSH2 0xFC9 JUMP JUMPDEST PUSH2 0xDD6 DUP2 CALLER PUSH2 0x1068 JUMP JUMPDEST POP JUMP JUMPDEST PUSH0 DUP3 DUP2 MSTORE PUSH1 0x20 DUP2 DUP2 MSTORE PUSH1 0x40 DUP1 DUP4 KECCAK256 PUSH20 0xFFFFFFFFFFFFFFFFFFFFFFFFFFFFFFFFFFFFFFFF DUP6 AND DUP5 MSTORE SWAP1 SWAP2 MSTORE DUP2 KECCAK256 SLOAD PUSH1 0xFF AND PUSH2 0xECB JUMPI PUSH0 DUP4 DUP2 MSTORE PUSH1 0x20 DUP2 DUP2 MSTORE PUSH1 0x40 DUP1 DUP4 KECCAK256 PUSH20 0xFFFFFFFFFFFFFFFFFFFFFFFFFFFFFFFFFFFFFFFF DUP7 AND DUP5 MSTORE SWAP1 SWAP2 MSTORE SWAP1 KECCAK256 DUP1 SLOAD PUSH32 0xFFFFFFFFFFFFFFFFFFFFFFFFFFFFFFFFFFFFFFFFFFFFFFFFFFFFFFFFFFFFFF00 AND PUSH1 0x1 OR SWAP1 SSTORE PUSH2 0xE69 CALLER SWAP1 JUMP JUMPDEST PUSH20 0xFFFFFFFFFFFFFFFFFFFFFFFFFFFFFFFFFFFFFFFF AND DUP3 PUSH20 0xFFFFFFFFFFFFFFFFFFFFFFFFFFFFFFFFFFFFFFFF AND DUP5 PUSH32 0x2F8788117E7EFF1D82E926EC794901D17C78024A50270940304540A733656F0D PUSH1 0x40 MLOAD PUSH1 0x40 MLOAD DUP1 SWAP2 SUB SWAP1 LOG4 POP PUSH1 0x1 PUSH2 0x45B JUMP JUMPDEST POP PUSH0 PUSH2 0x45B JUMP JUMPDEST PUSH0 DUP3 DUP2 MSTORE PUSH1 0x20 DUP2 DUP2 MSTORE PUSH1 0x40 DUP1 DUP4 KECCAK256 PUSH20 0xFFFFFFFFFFFFFFFFFFFFFFFFFFFFFFFFFFFFFFFF DUP6 AND DUP5 MSTORE SWAP1 SWAP2 MSTORE DUP2 KECCAK256 SLOAD PUSH1 0xFF AND ISZERO PUSH2 0xECB JUMPI PUSH0 DUP4 DUP2 MSTORE PUSH1 0x20 DUP2 DUP2 MSTORE PUSH1 0x40 DUP1 DUP4 KECCAK256 PUSH20 0xFFFFFFFFFFFFFFFFFFFFFFFFFFFFFFFFFFFFFFFF DUP7 AND DUP1 DUP6 MSTORE SWAP3 MSTORE DUP1 DUP4 KECCAK256 DUP1 SLOAD PUSH32 0xFFFFFFFFFFFFFFFFFFFFFFFFFFFFFFFFFFFFFFFFFFFFFFFFFFFFFFFFFFFFFF00 AND SWAP1 SSTORE MLOAD CALLER SWAP3 DUP7 SWAP2 PUSH32 0xF6391F5C32D9C69D2A47EA670B442974B53935D1EDC7FD64EB21E047A839171B SWAP2 SWAP1 LOG4 POP PUSH1 0x1 PUSH2 0x45B JUMP JUMPDEST PUSH1 0x40 MLOAD PUSH20 0xFFFFFFFFFFFFFFFFFFFFFFFFFFFFFFFFFFFFFFFF DUP4 DUP2 AND PUSH1 0x24 DUP4 ADD MSTORE PUSH1 0x44 DUP3 ADD DUP4 SWAP1 MSTORE PUSH2 0x65C SWAP2 DUP6 SWAP2 DUP3 AND SWAP1 PUSH4 0xA9059CBB SWAP1 PUSH1 0x64 ADD PUSH2 0xD85 JUMP JUMPDEST PUSH0 PUSH0 PUSH1 0x20 PUSH0 DUP5 MLOAD PUSH1 0x20 DUP7 ADD PUSH0 DUP9 GAS CALL DUP1 PUSH2 0xFE8 JUMPI PUSH1 0x40 MLOAD RETURNDATASIZE PUSH0 DUP3 RETURNDATACOPY RETURNDATASIZE DUP2 REVERT JUMPDEST POP POP PUSH0 MLOAD RETURNDATASIZE SWAP2 POP DUP2 ISZERO PUSH2 0xFFF JUMPI DUP1 PUSH1 0x1 EQ ISZERO PUSH2 0x1019 JUMP JUMPDEST PUSH20 0xFFFFFFFFFFFFFFFFFFFFFFFFFFFFFFFFFFFFFFFF DUP5 AND EXTCODESIZE ISZERO JUMPDEST ISZERO PUSH2 0x5FD JUMPI PUSH1 0x40 MLOAD PUSH32 0x5274AFE700000000000000000000000000000000000000000000000000000000 DUP2 MSTORE PUSH20 0xFFFFFFFFFFFFFFFFFFFFFFFFFFFFFFFFFFFFFFFF DUP6 AND PUSH1 0x4 DUP3 ADD MSTORE PUSH1 0x24 ADD PUSH2 0x750 JUMP JUMPDEST PUSH0 DUP3 DUP2 MSTORE PUSH1 0x20 DUP2 DUP2 MSTORE PUSH1 0x40 DUP1 DUP4 KECCAK256 PUSH20 0xFFFFFFFFFFFFFFFFFFFFFFFFFFFFFFFFFFFFFFFF DUP6 AND DUP5 MSTORE SWAP1 SWAP2 MSTORE SWAP1 KECCAK256 SLOAD PUSH1 0xFF AND PUSH2 0x10ED JUMPI PUSH1 0x40 MLOAD PUSH32 0xE2517D3F00000000000000000000000000000000000000000000000000000000 DUP2 MSTORE PUSH20 0xFFFFFFFFFFFFFFFFFFFFFFFFFFFFFFFFFFFFFFFF DUP3 AND PUSH1 0x4 DUP3 ADD MSTORE PUSH1 0x24 DUP2 ADD DUP4 SWAP1 MSTORE PUSH1 0x44 ADD PUSH2 0x750 JUMP JUMPDEST POP POP JUMP JUMPDEST PUSH0 PUSH1 0x20 DUP3 DUP5 SUB SLT ISZERO PUSH2 0x1101 JUMPI PUSH0 PUSH0 REVERT JUMPDEST POP CALLDATALOAD SWAP2 SWAP1 POP JUMP JUMPDEST PUSH0 PUSH1 0x20 DUP3 DUP5 SUB SLT ISZERO PUSH2 0x1118 JUMPI PUSH0 PUSH0 REVERT JUMPDEST DUP2 CALLDATALOAD PUSH32 0xFFFFFFFF00000000000000000000000000000000000000000000000000000000 DUP2 AND DUP2 EQ PUSH2 0x1147 JUMPI PUSH0 PUSH0 REVERT JUMPDEST SWAP4 SWAP3 POP POP POP JUMP JUMPDEST PUSH20 0xFFFFFFFFFFFFFFFFFFFFFFFFFFFFFFFFFFFFFFFF DUP2 AND DUP2 EQ PUSH2 0xDD6 JUMPI PUSH0 PUSH0 REVERT JUMPDEST PUSH0 PUSH0 PUSH0 PUSH0 PUSH0 PUSH1 0x80 DUP7 DUP9 SUB SLT ISZERO PUSH2 0x1183 JUMPI PUSH0 PUSH0 REVERT JUMPDEST DUP6 CALLDATALOAD PUSH2 0x118E DUP2 PUSH2 0x114E JUMP JUMPDEST SWAP5 POP PUSH1 0x20 DUP7 ADD CALLDATALOAD PUSH2 0x119E DUP2 PUSH2 0x114E JUMP JUMPDEST SWAP4 POP PUSH1 0x40 DUP7 ADD CALLDATALOAD SWAP3 POP PUSH1 0x60 DUP7 ADD CALLDATALOAD PUSH8 0xFFFFFFFFFFFFFFFF DUP2 GT ISZERO PUSH2 0x11C0 JUMPI PUSH0 PUSH0 REVERT JUMPDEST DUP7 ADD PUSH1 0x1F DUP2 ADD DUP9 SGT PUSH2 0x11D0 JUMPI PUSH0 PUSH0 REVERT JUMPDEST DUP1 CALLDATALOAD PUSH8 0xFFFFFFFFFFFFFFFF DUP2 GT ISZERO PUSH2 0x11E6 JUMPI PUSH0 PUSH0 REVERT JUMPDEST DUP9 PUSH1 0x20 DUP3 DUP5 ADD ADD GT ISZERO PUSH2 0x11F7 JUMPI PUSH0 PUSH0 REVERT JUMPDEST SWAP6 SWAP9 SWAP5 SWAP8 POP SWAP3 SWAP6 POP POP POP PUSH1 0x20 ADD SWAP2 SWAP1 JUMP JUMPDEST PUSH0 PUSH0 PUSH1 0x40 DUP4 DUP6 SUB SLT ISZERO PUSH2 0x1219 JUMPI PUSH0 PUSH0 REVERT JUMPDEST DUP3 CALLDATALOAD SWAP2 POP PUSH1 0x20 DUP4 ADD CALLDATALOAD PUSH2 0x122B DUP2 PUSH2 0x114E JUMP JUMPDEST DUP1 SWAP2 POP POP SWAP3 POP SWAP3 SWAP1 POP JUMP JUMPDEST PUSH0 PUSH0 PUSH0 PUSH1 0x40 DUP5 DUP7 SUB SLT ISZERO PUSH2 0x1248 JUMPI PUSH0 PUSH0 REVERT JUMPDEST DUP4 CALLDATALOAD PUSH8 0xFFFFFFFFFFFFFFFF DUP2 GT ISZERO PUSH2 0x125E JUMPI PUSH0 PUSH0 REVERT JUMPDEST DUP5 ADD PUSH1 0x1F DUP2 ADD DUP7 SGT PUSH2 0x126E JUMPI PUSH0 PUSH0 REVERT JUMPDEST DUP1 CALLDATALOAD PUSH8 0xFFFFFFFFFFFFFFFF DUP2 GT ISZERO PUSH2 0x1284 JUMPI PUSH0 PUSH0 REVERT JUMPDEST DUP7 PUSH1 0x20 DUP3 PUSH1 0x5 SHL DUP5 ADD ADD GT ISZERO PUSH2 0x1298 JUMPI PUSH0 PUSH0 REVERT JUMPDEST PUSH1 0x20 SWAP2 DUP3 ADD SWAP8 SWAP1 SWAP7 POP SWAP5 ADD CALLDATALOAD SWAP4 SWAP3 POP POP POP JUMP JUMPDEST PUSH20 0xFFFFFFFFFFFFFFFFFFFFFFFFFFFFFFFFFFFFFFFF DUP6 AND DUP2 MSTORE DUP4 PUSH1 0x20 DUP3 ADD MSTORE PUSH1 0x60 PUSH1 0x40 DUP3 ADD MSTORE DUP2 PUSH1 0x60 DUP3 ADD MSTORE DUP2 DUP4 PUSH1 0x80 DUP4 ADD CALLDATACOPY PUSH0 DUP2 DUP4 ADD PUSH1 0x80 SWAP1 DUP2 ADD SWAP2 SWAP1 SWAP2 MSTORE PUSH1 0x1F SWAP1 SWAP3 ADD PUSH32 0xFFFFFFFFFFFFFFFFFFFFFFFFFFFFFFFFFFFFFFFFFFFFFFFFFFFFFFFFFFFFFFE0 AND ADD ADD SWAP4 SWAP3 POP POP POP JUMP JUMPDEST PUSH32 0x4E487B7100000000000000000000000000000000000000000000000000000000 PUSH0 MSTORE PUSH1 0x32 PUSH1 0x4 MSTORE PUSH1 0x24 PUSH0 REVERT JUMPDEST PUSH32 0x4E487B7100000000000000000000000000000000000000000000000000000000 PUSH0 MSTORE PUSH1 0x11 PUSH1 0x4 MSTORE PUSH1 0x24 PUSH0 REVERT JUMPDEST DUP1 DUP3 MUL DUP2 ISZERO DUP3 DUP3 DIV DUP5 EQ OR PUSH2 0x45B JUMPI PUSH2 0x45B PUSH2 0x1348 JUMP JUMPDEST PUSH0 DUP3 PUSH2 0x13BF JUMPI PUSH32 0x4E487B7100000000000000000000000000000000000000000000000000000000 PUSH0 MSTORE PUSH1 0x12 PUSH1 0x4 MSTORE PUSH1 0x24 PUSH0 REVERT JUMPDEST POP DIV SWAP1 JUMP JUMPDEST DUP2 DUP2 SUB DUP2 DUP2 GT ISZERO PUSH2 0x45B JUMPI PUSH2 0x45B PUSH2 0x1348 JUMP INVALID LOG2 PUSH5 0x6970667358 0x22 SLT KECCAK256 0x22 0xAB MULMOD 0xBD PUSH30 0xF135394B506730AFB8A4E0A16E613D663E39B431862ED84FAC55AA64736F PUSH13 0x63430008220033000000000000 "},"methodIdentifiers":{"ARBITER()":"904cae5c","DEFAULT_ADMIN_ROLE()":"a217fddf","deposit(address,address,uint256,string)":"1fece7b4","escrowCount()":"675ac67a","escrows(uint256)":"012f52ee","getRoleAdmin(bytes32)":"248a9ca3","grantRole(bytes32,address)":"2f2ff15d","hasRole(bytes32,address)":"91d14854","platformFeeBps()":"22dcd13e","platformWallet()":"fa2af9da","release(uint256[],uint256)":"425838e6","releaseToReceiver(uint256)":"f9baebcb","renounceRole(bytes32,address)":"36568abe","revokeRole(bytes32,address)":"d547741f","supportsInterface(bytes4)":"01ffc9a7"}}}}}